:100000000C942A000C9447000C9447000C94470071
:100010000C9447000C9447000C9447000C949F02EA
:100020000C9447000C9447000C9447000C94470034
:100030000C9447000C9447000C9447000C94470024
:100040000C9447000C9447000C9447000C94470014
:100050000C94470011241FBECFE5D8E0DEBFCDBF12
:1000600010E0A0E6B0E0E2EAFEE002C005900D92EA
:10007000A837B107D9F726E0A8E7B0E001C01D9284
:10008000AC3AB207E1F70E9421010C944F070C949F
:100090000000CF93DF93EC010E94DE048091780092
:1000A00090917900892B31F48CE790E0909379005E
:1000B000809378002097C9F080917A0090917B001E
:1000C0009E01280F391F2B3D45E0340788F4821725
:1000D000930788F4C0917800D0917900C80FD91F98
:1000E00030937B0020937A0008C0C0E0D0E005C0C8
:1000F000C0E0D0E002C0C0E0D0E00E94FE05CE012A
:10010000DF91CF9108950895FC0103969283818336
:100110002FEF3FEF348323839683858390878783F4
:1001200010820895FC01118610860895CF93DF9305
:10013000EB01488159814F3F2FEF520721F4FC0119
:10014000A781B0850DC0DC01139601C0DF011296B6
:10015000ED91FC9113972081318142175307B0F73D
:100160001296ED91FC911397FB83EA83D583C483A8
:10017000BD83AC831396DC93CE93129799878887BF
:10018000FC0120812F5F2083DF91CF910895CF93D1
:10019000DF93FC01A085B185C281D38184819581E3
:1001A0009D838C83C481D581828193819B838A8343
:1001B00011968D919C911297E817F90731F484817B
:1001C000958112969C938E931197118610868C912F
:1001D00081508C93DF91CF9108958BB381608BBB5D
:1001E00084EF91E00E94D7068BB38E7F8BBB84EFA8
:1001F00091E00E94D706F1CF8BB382608BBB88EE73
:1002000093E00E94D7068BB38D7F8BBB88EE93E083
:100210000E94D706F1CF8BB384608BBB80ED97E053
:100220000E94D7068BB38B7F8BBB80ED97E00E943B
:10023000D706F1CF8AB387608ABB8BB3887F8BBB2D
:1002400008950E941A01E12CF12C03E020E030E037
:1002500044E661E670E08DEE90E00E946C0402E0FE
:1002600020E030E044E667E670E08CEF90E00E942A
:100270006C0401E020E030E044E66EE670E08BE0E4
:1002800091E00E946C040E94C704FFCF1BBC8CE766
:100290008ABD8BE08EBD89B7806189BF089531E149
:1002A000FC013083319722E220833197A3E3A083BE
:1002B000319760833197708331971082319760E86E
:1002C000608331971082319762E06083319763E0F9
:1002D0006083319764E06083319765E06083319794
:1002E00066E06083319767E06083319768E0608300
:1002F000319769E06083319760E1608331973083A3
:10030000319732E13083319733E13083319734E1F3
:100310003083319735E13083319736E1308331973F
:1003200037E13083319738E13083319739E13083D9
:10033000319730E23083319731E230833197208337
:10034000319723E22083319740833197508331974F
:1003500026E22083319727E22083319728E2208309
:10036000319729E22083319720E32083319721E3DD
:100370002083869708950E944601A091AA06B09115
:10038000AB06CD91CDBFDD91DEBFFF91EF91DF9147
:10039000CF91BF91AF919F918F917F916F915F911D
:1003A0004F913F912F911F910F91FF90EF90DF9010
:1003B000CF90BF90AF909F908F907F906F905F9005
:1003C0004F903F902F901F900F900FBE0F90089569
:1003D00081E008950F920FB6F8940F921F921124A6
:1003E0002F923F924F925F926F927F928F929F9245
:1003F000AF92BF92CF92DF92EF92FF920F931F9333
:100400002F933F934F935F936F937F938F939F931C
:10041000AF93BF93CF93DF93EF93FF93A091AA067F
:10042000B091AB060DB60D920EB60D920E94ED0680
:10043000A091AA06B091AB06CD91CDBFDD91DEBFF4
:10044000FF91EF91DF91CF91BF91AF919F918F91EC
:100450007F916F915F914F913F912F911F910F91DC
:10046000FF90EF90DF90CF90BF90AF909F908F90D4
:100470007F906F905F904F903F902F901F900F90C4
:100480000FBE0F9008950F920FB6F8940F921F921F
:1004900011242F923F924F925F926F927F928F9290
:1004A0009F92AF92BF92CF92DF92EF92FF920F9303
:1004B0001F932F933F934F935F936F937F938F93EC
:1004C0009F93AF93BF93CF93DF93EF93FF93A0914D
:1004D000AA06B091AB060DB60D920EB60D920E9413
:1004E000E40481110E94ED06A091AA06B091AB062A
:1004F000CD91CDBFDD91DEBFFF91EF91DF91CF9127
:10050000BF91AF919F918F917F916F915F914F912B
:100510003F912F911F910F91FF90EF90DF90CF901F
:10052000BF90AF909F908F907F906F905F904F9013
:100530003F902F901F900F900FBE0F9008950E9434
:1005400043021895E0917206F09173068081811143
:1005500007C08FEF9FEF90935C0680935B06089532
:10056000E0917206F09173060580F681E02D80819E
:10057000918190935C0680935B0608958F929F9281
:10058000AF92BF92CF92DF92EF92FF920F93CF93F1
:10059000DF935C014901F601C789D08D50E04150DD
:1005A0005109C40FD51F6115710589F415C0822F3B
:1005B00090E0FB01E80FF91F3081D601A80FB91FA9
:1005C00059963C938081882329F02F5F01C020E059
:1005D000283068F3F60110A2043008F003E0F601B9
:1005E000068BC60102960E949200C6010C960E94DC
:1005F0009200F601D186C08684E090E0801B9109CC
:1006000095878487D38AC28AA401B501CE010E944E
:100610004F01F60191838083E114F10419F0F70191
:10062000D182C082DF91CF910F91FF90EF90DF9048
:10063000CF90BF90AF909F908F9008954F925F9210
:100640006F927F928F929F92AF92BF92CF92DF92E2
:10065000EF92FF920F931F93CF93DF932C014B01E7
:10066000142F3901842F90E00E9449006C01892BDE
:1006700099F081E290E00E944900EC01892B41F061
:1006800081E2FE0111928A95E9F7D88ECF8A06C0E1
:10069000C6010E94830002C0C0E0D0E0209749F06C
:1006A000A12CB12C6E019301412FB401C2010E9413
:1006B000BE02CE01DF91CF911F910F91FF90EF907D
:1006C000DF90CF90BF90AF909F908F907F906F9072
:1006D0005F904F900895809186068230E0F30E94EB
:1006E000EA01F9CFCF93C0E010C08C2F90E09C01BD
:1006F000220F331F220F331F220F331F820F931F2E
:100700008A57994F0E948400CF5FC43070F38DE701
:1007100096E00E94840084E796E00E94840087E6C9
:1007200096E00E9484008DE796E090937306809394
:10073000720684E796E09093710680937006CF91DD
:100740000895CF93DF93EC010FB6F8940F92809148
:1007500066068F5F809366068091AA069091AB062D
:10076000892B59F4D093AB06C093AA0680916606F4
:10077000813099F40E94720310C080916206811149
:100780000CC0E091AA06F091AB0696898E89891774
:1007900020F0D093AB06C093AA0680915D068F5FD0
:1007A00080935D068E8990916306981710F480936C
:1007B000630690E0FC01EE0FFF1FEE0FFF1FEE0F30
:1007C000FF1F8E0F9F1FFC01EA57F94F0180F28136
:1007D000E02DFD83EC83848195819F838E83A481AA
:1007E000B581CE01029613969C938E9312979583B2
:1007F0008483EE89F0E0CF01880F991F880F991F3D
:10080000880F991FE80FF91FEA57F94FFB87EA870E
:1008100080818F5F80830F900FBE80916206882356
:1008200051F0E091AA06F091AB0696898E8998174F
:1008300010F40E94EA01DF91CF910895CF92DF92E8
:10084000EF92FF920F931F93CF93DF93EC010091F0
:10085000640610916506E0907206F0907306C090F1
:100860007006D09071068091AA069091AB06029610
:100870000E94C700C00FD11FE091AA06F091AB06FD
:10088000D383C283C017D10750F46091AA06709138
:10089000AB066E5F7F4FC6010E94960014C0609148
:1008A000AA067091AB066E5F7F4FC7010E9496004B
:1008B00080915B0690915C06C817D90720F4D0930D
:1008C0005C06C0935B06DF91CF911F910F91FF9063
:1008D000EF90DF90CF900895EF92FF920F930E94D8
:1008E0001E03009721F00E94A10381E001C08FEF59
:1008F0000F91FF90EF900895EF92FF920F931F9347
:10090000CF93DF93CDB7DEB728970FB6F894DEBF4D
:100910000FBECDBF20E012C0822F022E000C990B1B
:10092000FC01EE58FF4F3081E1E0F0E0EC0FFD1FDD
:10093000E80FF91F3083332319F02F5F283064F359
:1009400010E081E015C0812F880F990B9C01275A78
:10095000394F790100E020E030E045E5BE016F5FEE
:100960007F4F8BE693E00E946C04882319F01F5F91
:1009700011164CF728960FB6F894DEBF0FBECDBF08
:10098000DF91CF911F910F91FF90EF9008950E94FA
:100990007C04813081F4F8948FEF9FEF90935C0694
:1009A00080935B0681E08093620610926506109248
:1009B00064060E94BB0180916000089580915806F2
:1009C0008F5F8093580608950F931F93CF93DF9303
:1009D00080915806811101C1C0916406D0916506CD
:1009E0008E010F5F1F4F109365060093640601157B
:1009F0001105B9F4809172069091730620917006EA
:100A000030917106309373062093720690937106AD
:100A10008093700680915E068F5F80935E060E94D1
:100A2000A20280915B0690915C060817190720F4DA
:100A300080E0B8C081E001C080E0E0917206F091F2
:100A400073069081911107C02FEF3FEF30935C0642
:100A500020935B06A7C0E0917206F09173060580B3
:100A6000F681E02D0680F781E02D22813381021787
:100A7000130728F430935C0620935B0693C0A2858D
:100A8000B3852481358146815781E9015D834C839B
:100A90002681378144815581E9015B834A83119620
:100AA0002D913C911297AF014E5F5F4F2417350790
:100AB00031F42681378112963C932E931197138639
:100AC00012869C9191509C93A489B589109719F135
:100AD0002685378560897189E9017D836C8320894A
:100AE000318966857785E9017B836A8311966D91EB
:100AF0007C9112979F01245F3F4F6217730731F477
:100B00002089318912963C932E931197158A148A65
:100B10009C9191509C93268990916306921710F4B2
:100B20002093630630E0D901AA0FBB1FAA0FBB1F99
:100B3000AA0FBB1F2A0F3B1FD901AA57B94F119605
:100B40000D90BC91A02DB583A48314962D913C915A
:100B500015973783268314962D913C911597E901BB
:100B60005B834A8315965C934E931497A689B0E0F5
:100B70009D01220F331F220F331F220F331FA20F9D
:100B8000B31FAA57B94FB387A2879C919F5F9C93CD
:100B90002689E091AA06F091AB069689921708F48F
:100BA00049CF4BCFE091AA06F091AB06268930E001
:100BB000F901EE0FFF1FEE0FFF1FEE0FFF1F2E0FAD
:100BC0003F1FF901EA57F94F9081923008F081E018
:100BD00090915F0691110CC00CC0809160069091BD
:100BE00061060196909361068093600680E001C0E3
:100BF00081E0DF91CF911F910F910895CF93DF9303
:100C00000FB6F8940F928091580681508093580641
:100C1000809158068111C3C080916606811196C0EB
:100C2000C1C0E0916C06F0916D060680F781E02D61
:100C3000A489B589C685D785808991899D838C8350
:100C4000C089D189868597859B838A8311962D914A
:100C50003C911297CF010C962817390731F48089FF
:100C6000918912969C938E931197158A148A8C9170
:100C700081508C93A285B385C481D581868197816B
:100C80009D838C83C681D781848195819B838A8350
:100C900011968D919C9112979F012E5F3F4F821765
:100CA000930731F48681978112969C938E931197C6
:100CB000138612868C9181508C938689909163065D
:100CC000981710F48093630690E0DC01AA0FBB1F15
:100CD000AA0FBB1FAA0FBB1F8A0F9B1FDC01AA57BD
:100CE000B94F11960D90BC91A02DB583A483149695
:100CF0008D919C911597978386831496CD91DC9165
:100D000015973B832A8315963C932E931497A689B7
:100D1000B0E0CD01880F991F880F991F880F991F88
:100D2000A80FB91FAA57B94FB387A2878C918F5FBD
:100D30008C939689A091AA06B091AB0656968C9199
:100D4000891730F481E080935F0602C0E0E0F0E0B4
:100D500080916706811165CFEF2B11F00E94A202EE
:100D6000C0916006D0916106209769F00E94E4046A
:100D7000882319F081E080935F062197B9F71092DC
:100D800061061092600680915F06882351F0809181
:100D9000AA069091AB060E94EA0181E003C080E0C0
:100DA00001C080E00F900FBEDF91CF910895CF93E7
:100DB000DF93EC01892B49F00E94DE0460E0CE0154
:100DC0000E941E040E94FE0501C080E0811102C045
:100DD0000E94EA01DF91CF910895809158068823FF
:100DE00021F081E080935F06089510925F062091C4
:100DF000630601C02150822F90E0FC01EE0FFF1F1F
:100E0000EE0FFF1FEE0FFF1FE80FF91FEA57F94F14
:100E10003081332379F3AC01440F551F440F551F24
:100E2000440F551F480F591FFA01EA57F94FA18186
:100E3000B28112966D917C911397728361834757AB
:100E4000594F6417750779F4FC01EE0FFF1FEE0F81
:100E5000FF1FEE0FFF1FE80FF91FEA57F94F4581FB
:100E6000568152834183FC01EE0FFF1FEE0FFF1FDF
:100E7000EE0FFF1F8E0F9F1FFC01EA57F94F0180F5
:100E8000F281E02D868197819093AB068093AA062C
:100E9000209363068091AA069091AB060895F8947A
:020EA000FFCF82
:100EA20003475245454E0059454C4C4F5700524559
:080EB200440049444C450000D6
:00000001FF
